:020000040800F2
:10000000A00B0020010100081F370008C52E0008C2
:100010001D370008110A000889410008000000008F
:100020000000000000000000000000006D3B000820
:10003000810B000800000000413A0008753C0008F0
:100040001B0100081B0100081B0100081B01000820
:100050001B0100081B0100081B0100081B01000810
:100060001B0100081B0100081B0100081B01000800
:100070001B0100081B0100081B0100081B010008F0
:100080001B0100081B0100081B0100081B010008E0
:100090001B0100081B0100081B0100081B010008D0
:1000A0001B010008F13C00081B0100081B010008AF
:1000B0001B0100081B0100081B0100081B010008B0
:1000C0001B0100081B0100081B0100081B010008A0
:1000D0001B010008714100087D4100081B01000858
:1000E0001B0100081B0100081B010008DFF80CD0F1
:1000F00000F012FC00480047994F0008A00B0020B8
:100100000648804706480047FEE7FEE7FEE7FEE7B1
:10011000FEE7FEE7FEE7FEE7FEE7FEE7EF3C00084E
:10012000ED000008202A04DB203A21FA02F0002129
:10013000704721FA02F3D040C2F1200291400843F7
:1001400019467047D2B201E000F8012B491EFBD2DC
:1001500070470022F6E710B513460A4604461946D2
:10016000FFF7F0FF204610BDF0B480EA0102D40F83
:100170004200B2EB410F02D20246084611464A0045
:1001800042D0C30DDDB2C1F3C752AD1A202D35DA0E
:10019000C1F3160141F4000204B15242C5F1200638
:1001A00002FA06F12A411044B3EBD05F23D0C4B168
:1001B000012DA0EBC35009DCF0BC4FF0004202EA75
:1001C000C352DBB200F5000000F0EBBA400000F1D2
:1001D000807000EBC350A0F1807040EAD1704900FC
:1001E00009E0490841EAC071A0EBC35000F50000E6
:1001F000400800EBC350F0BC00F0CABA61420122D3
:1002000002EB4101001BF6E7F0BC704781F00041B2
:10021000AAE780F00040A7E780EA010210B502F0EB
:100220000043400022D04A001FD0010E01EB1261B2
:10023000C0F35600C2F3560240F4000042F400023C
:10024000A0FB022000047F39140400D0401C50EAB7
:10025000124001D44000491EC2B20C0604EBD0107B
:10026000401C4008802A02D003E0002010BD20F08E
:100270000100002900DA0020184310BD30B480EAE4
:10028000010202F0004530F0004221F0004013D09E
:1002900090B1C30DD40DC2F31601C0F31600E41AD9
:1002A00041F4000140F400027D34914201D3641C0A
:1002B00000E04900002C02DA30BC002070474FF407
:1002C00000000023914201D3891A034340084FEAFA
:1002D0004101F7D151B1914202D14FF0004105E007
:1002E00002D24FF0010101E06FF0010103EBC450B5
:1002F000284430BC00F04CBA2DE9FE4F804681EA1C
:100300000300C00F0C46009021F0004123F000458F
:10031000B8EB0200A94105D24046214690461C4652
:100320000B46024623F00040104347D0270DC7F389
:100330000A00C3F30A510290401A019040286BDA78
:10034000C3F3130040F4801B0098924620B10023B1
:10035000D2EB030A63EB0B0B01985946C0F1400244
:10036000504600F0F4F906460D4650465946019AAB
:1003700000F0FCF910EB08006141002487EA1152FB
:1003800084EAE7731A4340D0009A62B3019A012AC3
:100390004FEA075215DC001B61EB02014FF00042EF
:1003A00002EA0752CDE90042001C41F580113246B5
:1003B0002B4600F033FA03B0BDE8F08F40462146EB
:1003C000F9E7001B61EB0201001C41F580130018E6
:1003D0005B412018A2F5001747EB030140EAD570F6
:1003E000B6196D4111E06D084FEA360645EAC07551
:1003F0004FEA0752001B61EB0201001C41F580111E
:1004000049084FEA30000019514132462B4603B0EB
:10041000BDE8F04F00F0F3B900980122400000233E
:10042000D0EB020263EBE073009821464FEAE074E0
:10043000B8EB000061EB0401E9E783F000435BE700
:1004400081F0004158E72DE9FE4F81EA030404F0F2
:10045000004421F0004100944FF0000B23F00043D2
:1004600050EA01045ED052EA03045BD0C3F30A549D
:10047000C1F30A552C44A4F2F3340194A0FB0254B6
:10048000C1F3130141F48011C3F3130343F4801348
:1004900001FB024400FB034E840A970A44EA81549C
:1004A00047EA8357A4FB076802958D0A05FB078579
:1004B0004FEA932C04FB0C542705029D4FEA065883
:1004C00047EA1637B5EB08056EEB070C870E920E60
:1004D00047EA811742EA8312A7FB0201B6EB0B0140
:1004E00064EB00042B0D43EA0C335E1844EB1C5004
:1004F000DA465146E7FB0201C5F313044FEA0B331A
:1005000043EA14534FEA0432019C43EA0603A4F180
:100510000C040294009CCDE900B400F07FF903B014
:10052000BDE8F08F00200146F9E72DE9F04D81EAA2
:10053000030404F0004B21F0004514464FF0000A7C
:1005400023F0004150EA050220D054EA01021DD0F8
:10055000C5F30A570246C5F31303C1F31300C1F3F1
:100560000A5640F4801543F48013A7EB0608101BCD
:10057000D64608F2FD3873EB050002D308F10108F6
:1005800001E092185B41B8F1000F03DA0020014648
:10059000BDE8F08D00204FF48011064684460EE041
:1005A000171B73EB050705D3121B63EB050306430B
:1005B0004CEA010C49084FEA300092185B4150EABE
:1005C0000107EDD152EA030012D082EA040083EA67
:1005D0000501084305D0101BAB4106D201220023C0
:1005E00006E000224FF0004302E06FF001025310DA
:1005F0001AEB06004CEB085110EB0A0041EB0B0123
:10060000BDE8F04D00F0FBB870B521F000430343A6
:100610000CD0C1F30A550024D5EB040564EB0403A8
:10062000D617AD1AB34102DB0020014670BD201879
:1006300041EB025170BD96230022114600F0B1B883
:100640000EB5C10F80EAE0700844CA07002140F2ED
:1006500033438DE80E000A460B4600F0DFF803B086
:1006600000BD00F0004230F000400AD0C10D01F59D
:100670006071C0F3160042EA0151C20840071143FD
:10068000704700200146704701F0004330B421F06C
:10069000004150EA010206D00A0DA2F56072C1F3D2
:1006A0001301002A02DC30BC00207047440F44EAEA
:1006B000C104C100E01830BC00EBC25000F068B8C3
:1006C00030B50B46014600202022012409E021FA22
:1006D00002F59D4205D303FA02F5491B04FA02F51F
:1006E0002844151EA2F10102F1DC30BD2DE9F05FB6
:1006F0000546002092469B46884606468146402491
:100700001BE02846414647462246FFF70BFD53466D
:100710005A46C01A914110D311461846224600F09D
:1007200016F82D1A67EB01084F46224601200021DA
:1007300000F00DF817EB00094E41201EA4F1010452
:10074000DFDC484631462A464346BDE8F09F202A72
:1007500004DB203A00FA02F1002070479140C2F118
:10076000200320FA03F3194390407047202A06DB48
:10077000CB17203A41FA02F043EAE07306E041FA6F
:1007800002F3D040C2F1200291400843194670475D
:100790000029A8BF7047401C490008BF20F0010095
:1007A000704710B4B0FA80FC00FA0CF050EA010473
:1007B00004BF10BC704749B1CCF1200421FA04F405
:1007C00011FA0CF118BF012121430843A3EB0C01DE
:1007D000CB1D4FEA00614FEA102042BF002010BC41
:1007E000704700EBC35010440029A4BF10BC7047F1
:1007F000401C490008BF20F0010010BC704710B534
:10080000141E73F1000408DA401C41F10001921833
:100810005B411A4301D120F0010010BD2DE9F04DDC
:1008200092469B4611B1B1FA81F202E0B0FA80F231
:1008300020329046FFF78BFF04460F4640EA0A003D
:1008400041EA0B0153465A46084313D0114653EA76
:10085000010019D0C8F140025046FFF763FC05467D
:100860000E46504659464246FFF771FF084305D0F1
:10087000012004E020463946BDE8F08D0020054304
:1008800046EAE0762C4337430A986305E40AA0EB76
:1008900008000022FD0A44EA47540A3002D500202D
:1008A0000146E9E7010510196941DDE9084500192C
:1008B0006941BDE8F04DA2E7C1F30A52C1F313014B
:1008C00040F2FF3341F480119A4202DA00200146DF
:1008D000704740F233439A42A2F2334202DC524262
:1008E000FFF720BCFFF733BF30B5041E71F10004E1
:1008F00004DB4FF00044404264EB0101141E73F12D
:10090000000405DB1C464FF00043524263EB040336
:10091000994208BF904230BD064C074D06E0E068A2
:1009200040F0010394E8070098471034AC42F6D336
:10093000FFF7E0FBE06E0008006F000870B50446AA
:1009400000688168C943C90717D1816821F0010196
:10095000816000F051FD05460AE000BF00F04CFD4B
:10096000401B022804D920688068C043C00706D015
:1009700020688068C043C007F0D0002070BDA06A26
:1009800040F01000A062E06A40F00100E062012047
:1009900070BD0000F8B50026044600960068816826
:1009A000C943C9072DD0816841F001018160164813
:1009B00016490068B0FBF1F000E0401E00900028EE
:1009C000FBD100F019FD054616E000BF00F014FD54
:1009D000401B022810D920688068C043C0070BD094
:1009E000A06A40F01000A062E06A40F00100E062FE
:1009F00084F824600120F8BD20688068C043C007E7
:100A0000E4D10020F8BD00000C00002040420F009F
:100A1000FEE700002DE9F34F564C87B0A169049121
:100A20000898FFF7F3FB21690091FFF7F5FB5249A6
:100A30000968FFF799FB04F13C0503906F68606853
:100A40003946FFF7E3FBD5F808A05146FFF7DEFB78
:100A50004A490860EA6882F000464E6091468E601E
:100A6000A268CA6090460099FFF7D6FB2968FFF795
:100A70007BFB834630460099FFF7CEFB064639469E
:100A8000FFF772FB029030465146FFF76DFB82463E
:100A900040460099FFF7C0FB4946FFF765FB8146DA
:100AA00003990798FFF7B2FB8046E0612078FFF7D3
:100AB000C2FD59460190FFF7AFFB06462062514642
:100AC0000198FFF7A9FB6062059031460198FFF796
:100AD000A3FBE168FFF748FB0746A06239463046B2
:100AE000FFF7CCFBE062009039460598FFF7C6FBA4
:100AF000C4E90C060746DDE90101FFF78DFBA063A1
:100B0000019031460098FFF787FB5946FFF781FBBC
:100B10002860DDE90001FFF77FFB0299FFF779FB11
:100B2000686031463846FFF777FB5146FFF771FBA7
:100B3000A86038460199FFF76FFB4946FFF769FB4C
:100B4000E86041460098FFF767FB0399FFF70CFB4D
:100B50000949086041463846FFF75EFB0499FFF7F4
:100B600003FB0146A0610898FFF750FB606109B0E4
:100B7000BDE8F08F30000020240000208C0700200A
:100B8000704772B6FEE77CB514460D46064606224F
:100B900069463B2002F066FFBDF8000040BA308095
:100BA000BDF8020040BA2880BDF8040040BA208099
:100BB0007CBD0000024600200146022A06D0032A1E
:100BC00003D105480268506A5162704703480268C1
:100BD000506A00B2F8E70000A40100205C01002088
:100BE0007CB514460D46064606226946432002F0AF
:100BF00039FFBDF8000040BA3080BDF8020040BAAD
:100C00002880BDF8040040BA20807CBD70B51F4A22
:100C1000911E881EFFF7B7FF1C4C241FB4F9040077
:100C2000FFF70EFD06460D46B4F90000FFF708FD7C
:100C300032462B4604F0E4F80022154BFFF703FC84
:100C4000144A154BFFF771FCFFF71EFD04F10A0271
:100C5000911EE060881EFFF7C3FFB4F908100FA0D3
:100C600003F0A6FAB4F908004042FFF7E9FC4FF0A0
:100C700066320C4BFFF759FCFFF706FD0146206179
:100C8000E068BDE87040FFF7C5BE0000140000201A
:100C9000008066404AD8124DFB21094067793D2506
:100CA000640A00006666304010B50F4800F00EF987
:100CB000FFF7C1FC0D49FFF7E1FAFFF7D2FC4FF057
:100CC00066320B4BFFF7BFFB0222FFF79DFCFFF7DD
:100CD000DBFC0446FFF7C5FC02460B4605A003F00B
:100CE00067FA204610BD00008000002000F07F451C
:100CF00066660A4025660A00F8B500250446009598
:100D000090F8240001280BD0012084F8240020460C
:100D1000FFF714FE2046FFF73DFE060002D050E02C
:100D20000220F8BDA06A20F4885040F00200A062C2
:100D3000022000F0DFFE25490968B1FBF0F0400019
:100D400000E0401E00900028FBD12068816841F03F
:100D50000801816000F050FB074608E000F04CFB02
:100D6000C01B0A2803D920688068000715D42068B2
:100D700080680007F2D42068816841F00401816036
:100D800000F03AFB074612E000F036FBC01B0A28D1
:100D90000DD920688068400709D5A06A20F00200BC
:100DA00040F01000A06284F824500120F8BD2068B3
:100DB00080684007E8D4A06A20F0020040F00100FB
:100DC000A06284F824503046F8BD00000C000020DA
:100DD000F8B50024009490F824202546012A12D06A
:100DE000012280F824204A681F23072A0DD20668B2
:100DF000776B521E02EB820293409F430B68934035
:100E00001F43776319E00220F8BD06680D2A0AD255
:100E1000376BD21F02EB820293409F430B689340D3
:100E20001F43376309E0F76A0D3A02EB82029340F1
:100E30009F430B6893401F43F7620A6807230668C5
:100E40000A2A0AD3F7680A3A02EB420293409F4308
:100E50008B6893401F43F76008E0376902EB42025A
:100E600093409F438B6893401F4337610A68102A61
:100E700001D0112A20D1124B02689A4217D19368EF
:100E80001B0219D4936843F4000393600968102986
:100E900012D10C490C4A0968B1FBF2F101EB810156
:100EA000490000E0491E00910029FBD104E0816A5D
:100EB00041F020018162012480F824502046F8BDD1
:100EC000002401400C00002040420F000068C06C6C
:100ED000704700002DE9F0414FF0000704003D4647
:100EE0007ED0A06A002628B9E66284F824602046F5
:100EF00000F07EF82046FFF721FDA16AC90600D464
:100F000020B1A06A40F01000A06269E0A16A21F45B
:100F1000885141F00201A1626268E169237B0A43C2
:100F200047EA43010A43A1684FF48077B94209D0E8
:100F3000012907D05FF0000194F814C0BCF1010F43
:100F400002D00AE03946F7E7F3B1A36A43F0200381
:100F5000A362E36A43F00103E3622368D3F804C0A9
:100F60002CF4694C4CEA010CC3F804C021688B686E
:100F7000DFF870C003EA0C0313438B60A168B94229
:100F80000BD0012909D00CE0DFF85CC0A3690CEBA1
:100F900043330B4343F40061DFE7218A0D05A5F5D8
:100FA00080152168CB6A23F470032B43CB62216840
:100FB00089680E4B1940914208D1E662A16A21F07E
:100FC000020141F00101A162BDE8F081A06A20F0B8
:100FD000020040F01000A062E06A40F00100E06210
:100FE0000120F1E7FDF7E1FF00E0FFFFFE0E1FFF2C
:100FF00000B585B000210091019102910391006834
:101000000E49884218D10E48816941F4007181610E
:10101000816901F400710491816941F004018161E9
:101020008069694600F004000490022000900320CB
:101030000190044800F0EAF805B000BD002401402A
:10104000001002400008014070B5044690F82400EA
:1010500001280DD0012084F824002046FFF79AFCD7
:1010600002004FF0000005D084F82400104670BD47
:10107000022070BDA16A40F20123994341F48071BE
:10108000A1621F4D23681F49AB4218D10E6816F4A8
:10109000702F14D0A66A46F48016A6620E687605F4
:1010A00005D5A66A26F4005646F48056A662A66ABE
:1010B000F6040AD5E66A26F00606E66206E0A66AA7
:1010C00026F48016A6625E68E9E7E06284F82400F0
:1010D0006FF00200186020688368C3F34243072B57
:1010E00005D1A84208D1096811F4702F04D0816895
:1010F00041F480118160B9E7816841F4A001F9E70A
:10110000002801400424014010B590F8211000226D
:10111000022905D00421816380F82020012010BD20
:1011200001680B6823F00E030B6001680B6823F065
:1011300001030B6090F84030C46B012101FA03F306
:10114000636080F8211080F82020104610BD000058
:1011500010B590F821100024022903D004218163E6
:1011600001243DE001680A6822F00E020A6001686D
:101170000A6822F001020A601A4A0168914201D10C
:10118000012121E0174A1432914201D110211BE0C4
:10119000144A2832914201D1891515E0114A3C3296
:1011A000914201D189140FE00E4A5032914202D18E
:1011B0004FF4803108E00B4A6432914202D14FF47F
:1011C000801101E04FF08071064A083A5160012118
:1011D00080F82110002180F82010416B01B1884770
:1011E000204610BD0800024070B5044600F004F926
:1011F0000546601C02D004480078044400F0FCF866
:10120000401BA042FAD370BD000000202DE9F84F2A
:10121000DFF8B8910024A9F1040B23460F2709F148
:10122000040AABF1040EC9E00125A5402A40AA42F8
:101230007DD1674ED1F804C0ACEB0608B44532D07E
:1012400014DCBCF1030F3AD009DCBCF1000F2AD04A
:10125000BCF1010F1CD0BCF1020F31D11DE0BCF17B
:10126000110F17D0BCF1120F2AD119E0B8F5881F61
:1012700019D006DCB8F5803F15D0B8F5801F1FD116
:1012800011E0B8F5001F0ED0B8F5041F18D10AE020
:10129000CB6815E0CB681B1D12E0CB6808330FE06C
:1012A000CB680C330CE08B682BB1012B4FF008039B
:1012B00003D0456104E0042302E0056100E000235F
:1012C000FF2A01D8064601E000F104064FEA840532
:1012D00001D9A5F12005D6F8008007FA05FC28EA17
:1012E0000C0803FA05F548EA0508C6F800804D68C1
:1012F000ED0062D5374DAE6946F00106AE61AD69CD
:1013000024F0030605F001050095334D06EB050CAE
:10131000DCF80850A607360F07FA06F825EA080594
:10132000DFF8B880404503D14FF0000817E044E0F3
:10133000DFF8AC80404502D14FF001080FE0DFF844
:10134000A480404502D14FF0020808E0DFF8988001
:10135000404502D14FF0030801E04FF0040808FABD
:1013600006F848EA0508CCF808804D68D9F800600E
:10137000ED024D4601D5164300E096432E604D68C0
:10138000DAF80060AD02554601D5164300E09643F9
:101390002E604D68DBF80060AD035D4601D5164355
:1013A00000E096432E604D68DEF80060ED03754660
:1013B00001D5164300E096432E60641C0D682A4652
:1013C000E5407FF431AFBDE8F88F0000080401402C
:1013D0000000111000100240000001400008014010
:1013E000000C014000100140001401400AB10161ED
:1013F00070470904FBE7000001488068704700005F
:101400000000002070B5040025D094F83D000025B0
:1014100020B984F83C50204600F07EFA242084F85D
:101420003D002068016821F0010101602068016829
:1014300041F4004101602068016821F4004101602D
:1014400000F0D6FC4D4A6168914201D84C4900E059
:101450004C49884201D2012070BD4B492368B0FB42
:10146000F1F15E6826F03F060E435E6063689342CA
:1014700006D94FF4967359434FF47A73B1FBF3F1E5
:101480002368491C1E6A26F03F06314319626168D1
:10149000914210D84900401EB0FBF1F2521CC2F339
:1014A0000B02042A01D2042022E0B0FBF1F0401C20
:1014B000C0F30B001CE0A268F2B301EBC10303EB25
:1014C0000116431EB3FBF6F35B1C43F480431B057C
:1014D00049D092B301EBC10202EB0111401EB0FBF7
:1014E000F1F0401CC0F30B0040F4804040F4004099
:1014F0002168CA694CF6FF739A431043C861D4E966
:10150000071001432068026822F0C0021143016005
:10151000D4E9030101432068826848F2FF339A430B
:1015200011438160D4E9050108432168CA6822F0AB
:10153000FF021043C86001E00EE016E02068016879
:1015400041F0010101602564202084F83D002563FD
:1015500084F83E50002070BD01EB4106431EB3FBF2
:10156000F6F35B1CB3E70120C2E701EB4101401E2B
:10157000B0FBF1F0401CC0F30B00B7E7A086010000
:1015800080841E0000093D0040420F002DE9FF4FFE
:1015900083B00025DDE910799A4693460446DDF8CC
:1015A00048800095FFF728FF064694F83D00202864
:1015B0007CD11923012288492046009601F098FD2C
:1015C0000028F5D194F83C0001286FD0012084F860
:1015D0003C0020680168C90703D1016841F001019E
:1015E00001602068016821F400610160222084F814
:1015F0003D00402084F83E0025646762A4F82A90EC
:10160000608D20857548E062CDE9008653465A46D4
:101610002046049901F06EFC00287CD1208DDFF873
:10162000C091202768B1012814D0022820680168E1
:101630001ED041F48061016020684169806900909A
:10164000BCE02068416981690091016841F4007142
:101650000160B3E02068016821F48061016072B626
:101660002068416981690091016841F400710AE0D4
:1016700041F40061016072B620684169816900919E
:10168000016821F48061016062B697E0032865D8A3
:1016900001280CD0022843464FF00002494620465C
:1016A00000960BD001F024FDA8BB0CE091E032467F
:1016B0004146204601F0C2FD68BB72E001F018FD12
:1016C00048BB72B633E02068016821F48061016094
:1016D00072B620680069616A0870606A401C6062C6
:1016E000208D401E2085608D401E60853D4846F25D
:1016F000A8110068B0FBF1F0C0EBC00000EB800067
:101700000090401E009007D020684069C043400709
:101710000DD50098F5E727E044F8305F6773A573AF
:10172000206940F02000206162B625731CE020682B
:10173000016841F40071016020680069616A087005
:10174000606A401C6062218D491E2185618D491EA1
:10175000618562B621680969017026E0324641461A
:10176000204601F06BFD18B1012007B0BDE8F08FF5
:1017700020680069616A0870606A401C6062208DA0
:10178000401E81B22185608D401E608520684269BF
:10179000D243520712D4032903D1016821F4806196
:1017A000016020680069616A0870606A401C6062BC
:1017B000208D401E2085608D401E6085208D002874
:1017C0007FF464AF84F83D7084F83E5084F83C5058
:1017D000CBE70220C9E70000020010000000FFFF75
:1017E000040001000C0000202DE9FF4F83B09A4651
:1017F000DDE9119793460446DDF84080FFF7FCFDD4
:10180000054694F83D0020287FD119230122404944
:101810002046009501F06CFC002876D194F83C003D
:10182000012872D0012084F83C0020680168C907B3
:1018300003D1016841F0010101602068016821F4D1
:1018400000610160212084F83D00402084F83E00C2
:1018500000262664C4F82480A4F82A90608D208590
:101860002C48E062CDE9007553465A46204604995B
:1018700001F0BEFB70B930E02A463946204601F03F
:1018800015FD58B1206C042804D12068016841F48A
:1018900000710160012007B0BDE8F08F606A216827
:1018A00000780861606A401C6062218D491E89B21F
:1018B0002185628D521E628522685369DB435B0776
:1018C0000BD469B100781061606A401C6062208DA1
:1018D000401E2085608D401E6085208D0028CBD164
:1018E0002A463946204601F0D7FB0028CAD154F8D1
:1018F0003D0B016841F400710160202004F81E09CD
:10190000E67766770020C6E7FFE70220C3E700001E
:10191000020010000000FFFF10B586B0002100910A
:101920000191029103910068104988421BD1104C2B
:10193000A06940F00800A061A069694600F00800B5
:1019400004904FF440600090122001900320039017
:101950000848FFF75BFCE06940F48000E061E06963
:1019600000F48000049006B010BD00000058004054
:1019700000100240000C01400248816802781144C6
:101980008160704700000020074810B5016841F0F1
:1019900010010160032000F09BF80F2000F006F812
:1019A00000F04AF8002010BD0020024030B5054686
:1019B0001C4887B0816941F400618161806906A992
:1019C00000F40060009001A800F0F2F900F020FAA5
:1019D0001549164AB0FBF1F11548491E02604160F5
:1019E00040F2E7320021C0E903218160816100F00B
:1019F00047FD040012D10E4800F084FD04000DD113
:101A0000192000F037F8102D07D20022294619209E
:101A100000F03EF80748056000E0012407B02046CA
:101A200030BD00000010024040420F00002C014079
:101A3000C4020020040000200C4808B5816941F070
:101A400001018161816901F001010091C16941F0E9
:101A50008051C161C06900F0805000900448416825
:101A600021F0E06141F00071416008BD00100240CA
:101A700000000140002809DB00F01F020121914015
:101A80004009800000F1E020C0F80011704700001C
:101A9000F0B40E4B1B680C46C3F30223C3F10705D9
:101AA000042D00D90425191D072901D2002300E0C7
:101AB000DB1E012606FA05F1491E214099409E4091
:101AC000761E16403143F0BC02F0AABB0CED00E0DC
:101AD000064900F0070208684FF6FF03184040EA85
:101AE0000220034A10430860704700000CED00E03C
:101AF0000000FA0510B501460020234C012922D030
:101B0000022939D010291DD161682268D20119D566
:101B10001E48C1F38342C903805C0AD561681B4A31
:101B2000C1F34041921E515C194AB2FBF1F14843A6
:101B300001E0184948436168490203D44000032189
:101B4000B0FBF1F010BD226AC2F30121012903D1DB
:101B5000920701D5C80310BD022905D1626A920718
:101B600002D549F6404010BD0329FCD12168890304
:101B7000F9D54FF2244010BD00F04AF96168C1F375
:101B80008131491C4900DBE7001002400850000881
:101B900000127A0000093D002DE9F843054600785F
:101BA000354CC00754D0E0690026C00008D4E06975
:101BB00040F08050E061E069012600F08050009024
:101BC0002E480168C90512D40168804641F480712D
:101BD0000160FFF711FC074605E000BFFFF70CFCB2
:101BE000C01B642823D8D8F80000C005F6D5206AA9
:101BF00010F4407021D0A98801F4407181421CD0BA
:101C0000206A1F49012220F440700A6000220A6005
:101C10002062C00711D0FFF7EFFB074641F288387A
:101C200008E000BFFFF7E8FBC11B414502D90320D4
:101C3000BDE8F883206A8007F4D5206A696820F43B
:101C40004070084320621EB1E06920F08050E061DE
:101C50002878800705D56068A96820F440400843CB
:101C600060602878C00605D56068E96820F48000C7
:101C7000084360600020DBE7001002400070004075
:101C8000400442422DE9F0470F46050061D0434E23
:101C9000306800F00700B84209D2306820F0070031
:101CA00038433060306800F00700B84251D12868EE
:101CB0003B4C810712D5400703D5606840F4E060D3
:101CC00060602878000703D5606840F46050606069
:101CD0006068A96820F0F000084360602878C007B9
:101CE00028D06868012810D02168022810D0890700
:101CF00000292EDA616821F0030101436160FFF7DA
:101D00007BFB804641F288390DE021688903EFE7CB
:101D10008901EDE7FFF770FBA0EB0801494502D907
:101D20000320BDE8F0876068696800F00C00B0EB44
:101D3000810FEFD1306800F00700B8420BD930684E
:101D400020F0070038433060306800F00700B842E8
:101D500001D00120E5E72878400705D56068E968EB
:101D600020F4E060084360602878000706D56068CA
:101D7000296920F4605040EAC100606000F058F822
:101D80006168084AC1F30311515CC8400649086004
:101D900006480068FFF70AFE0020C2E70020024064
:101DA00000100240185000080C0000200400002021
:101DB0000F2202600C4A536803F003034360536828
:101DC00003F0F0038360536803F4E063C360526878
:101DD0004FF4E06303EAD20202610448006800F0B5
:101DE0000700086070470000001002400020024019
:101DF0000448054900684968044AC1F30221515C5E
:101E0000C84070470C000020001002402850000815
:101E10000448054900684968044AC1F3C221515C7D
:101E2000C84070470C0000200010024028500008F5
:101E30000E4A51680E4801F00C03042B11D0082BF8
:101E40000FD10C48C1F38343C903C05C0AD5516864
:101E5000084AC1F34041921E515C054A5043B0FB11
:101E6000F1F07047044948437047000000100240F9
:101E700000127A00F64F000800093D002DE9F84FE6
:101E8000040070D02078C04DC00749D06868C0F306
:101E90008100012807D06868C0F38100022809D1B9
:101EA0006868C00306D52868800339D560680028B3
:101EB000E7D035E06068B0F5803F0BD010B1B0F5E9
:101EC000A02F11D0286820F480302860286820F4E2
:101ED000802002E0286840F480302860606890B17B
:101EE000FFF78AFA06460AE0286840F48020286056
:101EF000F0E700BFFFF780FA801B642873D82868DA
:101F00008003F7D50CE0FFF777FA064605E000BF3F
:101F1000FFF772FA801B6428F0D828688003F7D492
:101F200020789A4E80074FF001094FF0000839D50C
:101F3000686810F00C0F07D06868C0F381000228B1
:101F400009D16868C00306D42868800714D52069C1
:101F5000012808D110E02069B0B1C6F80090FFF761
:101F60004BFA074605E00AE1FFF746FAC01B0228D4
:101F7000C4D828688007F7D52868616920F0F80080
:101F800040EAC10028600DE0C6F80080FFF734FA8F
:101F9000074604E0FFF730FAC01B022823D8286860
:101FA0008007F7D4207800072CD57948A169D9B1EA
:101FB000C0F80090FFF720FA074604E0FFF71CFA8C
:101FC000C01B02280FD8686A8007F7D571484FF404
:101FD000FA510068B0FBF1F0009000BF0098411E7C
:101FE0000091FAD20EE080E0C0F80080FFF704FA1A
:101FF000074604E0FFF700FAC01B022875D8686A9C
:102000008007F7D42078400760D5E8690027C00032
:1020100008D4E86940F08050E861E869012700F0E1
:10202000805000905C480168C90513D4016883465C
:1020300041F480710160FFF7DFF9824606E000BFDE
:10204000FFF7DAF9A0EB0A0064284ED8DBF80000AD
:10205000C005F5D5E06801280AD008B1052813D0DD
:10206000286A20F001002862286A20F0040002E0BB
:10207000286A40F001002862E06841F2883B98B18C
:10208000FFF7BAF982460BE0286A40F004002862A4
:10209000EEE700BFFFF7B0F9A0EB0A0159455AD8A7
:1020A000286A8007F6D50CE0FFF7A6F9824605E01E
:1020B000FFF7A2F9A0EB0A0159454CD8286A80071E
:1020C000F6D41FB1E86920F08050E861E06988B378
:1020D0006968C1F38101022944D00228C6F86080F2
:1020E00004D0FFF789F9044638E034E0FFF784F9BB
:1020F000074604E0FFF780F9C01B02282BD82868A8
:102100008001F7D4206AB0F5803F05D16868A168E6
:1021100020F4003008436860D4E908010843696886
:1021200021F4741108436860C6F86090FFF764F901
:10213000044606E025E000BFFFF75EF9001B022819
:1021400009D828688001F7D51BE000BFFFF754F9D4
:10215000001B022802D90320BDE8F88F28688001FF
:10216000F4D40EE00128F7D06868226A00F48031C8
:10217000914204D1616A00F47010884201D00120BC
:10218000EAE70020E8E700000010024000004242B9
:10219000800442420C0000200070004070B5040032
:1021A00009D0606A002540B125616561A56294F897
:1021B000510040B10CE0012070BD6068B0F5827F35
:1021C000F4D0E561F2E784F85050204600F040F882
:1021D000022084F851002068016821F0400101606C
:1021E000A088218900F4827001F404410843A18988
:1021F00001F400610843217C01F002010843217DC4
:1022000001F001010843218B01F400710843217F93
:1022100001F03801084394F8201001F080010843D0
:10222000218D01F40051084321680860A069042150
:1022300001EA1040216848602068C16921F400610A
:10224000C1616565012084F85100002070BD000067
:1022500000B585B0002100910191029103910068C1
:102260000F4988421AD10F48816941F48051816138
:10227000816901F480510491816941F00401816117
:102280008069694600F004000490E020009002207C
:102290000190032003900448FEF7B8FF05B000BD8D
:1022A0000030014000100240000801402DE9F84FC5
:1022B000984616468A460446FFF79EF8814694F8EB
:1022C000510001281ED1BAF1000F73D0002E71D039
:1022D00094F85000012815D0012784F8507003208D
:1022E00084F8510000256565C4F830A0A686E6860E
:1022F000A563A587E58765642564A068B0F5004FF0
:1023000003D00CE00220BDE8F88F2068016821F0BE
:10231000400101602068016841F48041016020684B
:102320000168490603D4016841F040010160E0689A
:10233000B0F5006F606803D048B3012E27D047E0A6
:1023400008B1012E1FD1206B21680088C86006E00B
:1023500020688168890709D5216B0988C160206BD5
:10236000801C2063E08E401EE0860CE0FFF744F8FE
:10237000A0EB0901414503D3B8F1FF3F03D035E09D
:10238000B8F1000F32D0E08E0028E1D123E0206BBD
:1023900021680078087306E02068816889070AD5FB
:1023A000216B09780173206B401C2063E08E401E76
:1023B000E0860DE02BE0FFF71FF8A0EB0901414597
:1023C00003D3B8F1FF3F03D010E0B8F1000F0DD0F8
:1023D000E08E0028E0D14A464146204601F050FBFD
:1023E00008B120206065A06830B109E084F8517020
:1023F00084F85050032086E72068C1688068009008
:1024000084F8517004F8505F60680028F3D0012010
:1024100079E770477047000070B590F83C20012ABA
:1024200026D0012480F83C40022280F83D20036839
:102430005A689D6822F070060A6832435A600D4B54
:1024400002689A4208D0B2F1804F05D00A4B9A42F6
:1024500002D00A4B9A4204D1496825F080031943FF
:10246000916080F83D40002180F83C10084670BD26
:10247000022070BD002C0140000400400008004014
:1024800010B5040003D094F83D0010B107E001201E
:1024900010BD002084F83C00204600F01FF8022008
:1024A00084F83D00211D206801F028FC012084F8FB
:1024B000460084F83E0084F83F0084F8400084F829
:1024C000410084F8420084F8430084F8440084F812
:1024D000450084F83D00002010BD000008B50068EC
:1024E0000649884208D10648C16941F00401C1612A
:1024F000C06900F00400009008BD00000008004022
:102500000010024090F83D10012901D001207047D1
:10251000022180F83D100168CA6842F00102CA60D9
:1025200000680B49884208D0B0F1804F05D00949B6
:10253000884202D00849884204D1816801F007012D
:10254000062903D0016841F00101016000207047B5
:10255000002C0140000400400008004070B5044613
:1025600090F83C000025012817D0012684F83C6033
:10257000022084F83D002068826822F0770222F46D
:102580007F4282600868502838D00DDC20284FD068
:1025900005DC90B3102811D14AE0022070BD30282C
:1025A00046D040280AD13BE060282FD070280DD0BB
:1025B000B0F5805F03D0B0F5005F12D0012584F83C
:1025C0003D60002084F83C00284670BDCB68D1E90E
:1025D0000121206801F0CEFB2068816841F077017D
:1025E00009E0CB68D1E90121206801F0C3FB206834
:1025F000816841F480418160E1E719E0CA68496877
:10260000206801F06BFC5021206806E0CA68496828
:10261000206801F074FC6021206801F0B5FBCEE772
:10262000CA684968206801F059FC40212068F4E735
:10263000226801461046F0E72DE9F0410D460400FE
:1026400003D094F83D0018B108E00120BDE8F08106
:10265000002084F83C00204600F040F8022084F876
:102660003D002068816844F2070291438160211D8A
:10267000206801F043FB226890689169166A2B6814
:10268000AF69034340F20330814341EA0721A86860
:10269000EF6908434FF6FC418843E96840EA0720A8
:1026A000014328692F6A000140EA0730084369683E
:1026B0006D6926F0220646EA0515294393602268D3
:1026C000906154F8460B0162012004F81F09E0757F
:1026D0002076E0762077A0750020B7E770B586B049
:1026E0000025009501950295039500682B492C4E15
:1026F0002C4CB0F1804F22D02B4A90421DD1C8699A
:1027000040F00200C861C86900F0020004908869C6
:1027100040F0080088618869694600F0080004906C
:10272000302000903046FEF771FD606820F4406074
:1027300040F0E06040F40060606006B070BDC869C1
:1027400040F00100C861C86900F001000490886988
:1027500040F004008861886900F0040004908869F2
:1027600040F0080088618869694600F0080004901C
:102770004FF4004000900D48FEF748FD0820CDE9D9
:102780000005694630460295FEF740FD606820F47A
:10279000407040F0E06040F48070CDE700100240EF
:1027A000000C01400000014000040040000801400E
:1027B00070472DE9F04104460068C66805694FF08E
:1027C0000007A90713D5B10711D5F91E0161012032
:1027D0002077206880698007204602D0FFF7E8FF55
:1027E00004E000F0A5F8204600F037F927776807E5
:1027F00016D5700714D521686FF004000861022017
:1028000020772068806910F4407F204602D0FFF7CF
:10281000CFFF04E000F08CF8204600F01EF9277787
:10282000280715D5300713D521686FF00800086117
:10283000042020772068C0698007204602D0FFF777
:10284000B7FF04E000F074F8204600F006F927779F
:10285000E80616D5F00614D521686FF0100008615F
:10286000082020772068C06910F4407F204602D0FD
:10287000FFF79EFF04E000F05BF8204600F0EDF863
:102880002777E80708D0F00706D021686FF001002D
:102890000861204600F0E2F8280608D5300606D583
:1028A00021686FF0800008612046FFF7B2FD6806DE
:1028B00008D5700606D521686FF0400008612046F3
:1028C00000F0D6F8A8060AD5B00608D521686FF042
:1028D000200008612046BDE8F041FFF79BBDBDE840
:1028E000F081000000B585B00021009101910291B6
:1028F000039100680B49884212D10B48816941F06D
:10290000080181618069694600F0080004904FF475
:10291000407000900220019003900448FEF776FC7E
:1029200005B000BD0008004000100240000C01404E
:10293000704770B5044690F83C0000260D4601280B
:102940000FD0012084F83C006AB1042A1DD0082A67
:102950002FD00C2A3FD00126002084F83C003046BE
:1029600070BD022070BD206801F016FA20688169F0
:1029700041F0080181612068816921F004018161D1
:10298000206881692A69114311E0206801F02CFA5E
:102990002068816941F4006181612068816921F4C6
:1029A00080618161206881692A6941EA022181612F
:1029B000D2E7206801F044FA2068C16941F00801BB
:1029C000C1612068C16921F00401C1612068C16949
:1029D0002A69114311E0206801F05EFA2068C1699C
:1029E00041F40061C1612068C16921F48061C16165
:1029F0002068C1692A6941EA0221C161ACE710B5CA
:102A0000040003D094F83D0010B107E0012010BD90
:102A1000002084F83C00204600F01EF8022084F8D4
:102A20003D00211D206801F069F9012084F846006D
:102A300084F83E0084F83F0084F8400084F84100A8
:102A400084F8420084F8430084F8440084F8450088
:102A500084F83D00002010BD7047704700680349AE
:102A6000884201D1FEF788BF70470000002C01406A
:102A70007047704770470000F8B501680446086861
:102A8000CA684B6910F00F0F4FF0000559D003F0E2
:102A9000010602F49077374365D0C10705D0D10510
:102AA00003D5616C41F001016164410705D5D90787
:102AB00003D0616C41F002016164810705D5D9073B
:102AC00003D0616C41F004016164010707D502F095
:102AD0002001314303D0616C41F008016164616CF5
:102AE00000293AD0800604D5900602D5204601F090
:102AF00047FA20684069616CC0F38010090700D470
:102B000060B3204601F015FA20684069400621D5DF
:102B10002068143050E8001F21F0400140E8001206
:102B2000002AF5D1E06BA8B16D494163E06BFEF777
:102B30000FFB002811D0E06B416B01B0BDE8F04005
:102B4000084783060FD593060DD52046BDE8F8400B
:102B500001F016BA2046FFF78DFFF8BD2046FFF7BB
:102B600089FF6564F8BD266B2023012E7CD1C60643
:102B70007AD5D60678D508684868009048694FF03D
:102B80000206400640D5E16B086840680004000C6E
:102B9000E8D0A28D8242E5D9E085886920282DD031
:102BA00020680C3050E8001F21F4807140E80012CA
:102BB000002AF5D12068143050E8001F21F00101EF
:102BC00040E80012002AF5D12068143050E8001FB8
:102BD00021F0400140E80012002AF5D184F842308B
:102BE000256320680C3050E8001F21F0100140E8F8
:102BF0000012002AF5D1E06BFEF786FA6663A08D1D
:102C0000E18D401A81B22AE0A08DE18D401A81B297
:102C1000E08D0028A6D00029A4D022680C3252E80A
:102C2000000F20F4907042E80007002FF5D12068D3
:102C3000143050E8002F22F0010240E80027002F56
:102C4000F5D184F84230256320680C3050E8002F1D
:102C500022F0100240E80023002BF5D166632046E5
:102C6000FFF707FFF8BDFFE705062BD5150629D5A9
:102C700094F841002128F5D1A068B0F5805F01D11A
:102C80002069B0B1206A411C216221680078486047
:102C9000E08C401E0004000CE084E3D12068C16891
:102CA00021F08001C1602068C16841F04001C1602D
:102CB000D8E7206A0088C0F308004860206A801CBA
:102CC0002062E5E74006CDD55006CBD5CA68204640
:102CD00022F04002CA6084F8413000F0F2F8C1E707
:102CE000233F000870B5040004D094F8410000258B
:102CF00010B106E0012070BD84F84050204600F07D
:102D000023F8242084F841002068C16821F4005190
:102D1000C160204601F096F92068016921F49041D4
:102D200001612068416921F02A0141612068C16880
:102D300041F40051C1606564202084F8410084F8AA
:102D400042006563002070BD70B586B00024009419
:102D50000194029403942E4E03682E49022003220C
:102D60002D4DB34226D18B6943F480438B618B692F
:102D700003F4804304938B6943F004038B618969F6
:102D8000039201F0040104910102CDE900106946AB
:102D90002846FEF73BFA2815CDE900046946284687
:102DA0000294FEF733FA002211462520FEF770FE4A
:102DB000252028E0194EB34227D1CB6943F40033D4
:102DC000CB61CB6903F4003304938B6943F00403B4
:102DD0008B618969039201F0040104910421CDE91A
:102DE000001069462846FEF711FA0820CDE90004D4
:102DF000694628460294FEF709FA00221146262069
:102E0000FEF746FE2620FEF735FE06B070BD000038
:102E1000003801400010024000080140004400401A
:102E200070472DE9F843044690F84100984616464D
:102E30000D46202802D00220BDE8F88385B17EB17E
:102E400000206064212084F84100FEF7D5FAA684B2
:102E50008146E684A0682027B0F5805F02D003E0B9
:102E60000120E9E7206910B12E4600250EE000267A
:102E70000CE08021204601F041F9A8B9C6B116F84E
:102E8000010B21684860E08C401EE084E08C4B46DA
:102E90004FF00002CDF800800028EAD14FF0400149
:102EA000204601F02BF940B184F841700320C3E7BC
:102EB00035F8020BC0F30800E3E784F84170002006
:102EC000BAE77047FEE701684A69D24352050FD45A
:102ED0006FF480624A61002140F8301F2022427363
:102EE0008173026942F0040202610173012070479C
:102EF000002070472DE9F84F0446006889460B9D75
:102F000001689846174641F48061016020680168B5
:102F100041F48071016000954FF0011B0022594679
:102F200020460A9B00F0E4F84FF4007A40B1206894
:102F30000068C00501D5C4F840A00320BDE8F88FA3
:102F4000216809F0FE0008612B46284920460A9AAC
:102F500000F016F9F0BB20684169806900902A46AC
:102F600020460A9900F0A2F940B1206C04283AD119
:102F70002068016841F40071016034E0FEB2B8F1EC
:102F8000010F09D02168380A08612A4620460A99AB
:102F900000F08CF90028E8D1206806612A46204616
:102FA0000A9900F083F90028DFD12068016841F414
:102FB0008071016000950022594620460A9B00F06E
:102FC00097F80028B3D1216809F0FF0040F0010014
:102FD000086100E007E02B46044920460A9A00F009
:102FE000CFF80028AAD00120A8E7000002000100C5
:102FF0002DE9F843044600680D46DDE908970168AD
:103000009846164641F4807101604B4600224FF00D
:1030100001112046009700F06BF848B12068006865
:10302000C00502D54FF4007020640320BDE8F8838A
:10303000216805F0FE0008613B464A4615492046D6
:1030400000F09EF888B920684169806900903A468E
:103050004946204600F02AF948B1206C042804D1E2
:103060002068016841F4007101600120DEE7F5B2DB
:10307000B8F1010F09D02168300A08613A46494683
:10308000204600F013F90028E7D1206805610020F0
:10309000CCE700000200010070B516460D4604465C
:1030A0001EE02046FFF70FFF08B1012070BD681C2D
:1030B00016D0FEF7A1F9801BA84200D885B9206878
:1030C0004069C04340070BD5002044F8300F202151
:1030D0006173A073216941F0200121612073E4E74D
:1030E00020684069C0434007DBD4002070BD000069
:1030F0002DE9F047984617460D460446C1F30746AA
:10310000DDF820902AE000BFB8F1FF3F26D0FEF79F
:1031100073F9A0EB0901414502D8B8F1000F1DD1A8
:103120002068012E16D0806925EA00000004000CFA
:1031300012D00020B84211D1002044F8300F2021D5
:103140006173A073216941F0200121612073012086
:10315000BDE8F0874069E7E70120EBE72068012E32
:103160000AD0806925EA00000004000C06D0002087
:10317000B842C9D00020EBE74069F3E70120F7E748
:103180002DE9F047984616460D4604464FF00009D3
:103190004FF0200AC1F3074723E020684069C0438D
:1031A000400515D42068016841F400710160216870
:1031B0006FF480604861C4F8309084F83DA084F8D2
:1031C0003E90216C41F00401216484F83C9021E0A0
:1031D000701C06D0FEF710F9A0EB0800B04203D82F
:1031E00016B1012F1FD021E02068012F15D0806972
:1031F00025EA00000004000C18D000BF44F8309FFE
:1032000084F80DA084F80E90216941F0200121611D
:1032100084F80C900120BDE8F087406925EA0000A1
:103220000004000CEAD12068406901E02068806950
:1032300025EA00000004000CAFD1ECE72DE9F041D5
:10324000002590460E460446202728E04069C043EA
:10325000C0060CD454F8301B6FF01000486144F8DD
:1032600010596777A577206A2062257714E0FEF76A
:10327000C3F8A0EB0800B04200D886B920684069C6
:10328000C04340060BD544F8305F6773A5732069CF
:1032900040F02000206125730120BDE8F081206806
:1032A0004169C9434906D1D40020F6E770B51646F6
:1032B0000D4604461EE02046FFF705FE08B101203A
:1032C00070BD681C16D0FEF797F8801BA84200D886
:1032D00085B920684069C04300060BD5002044F83A
:1032E000300F20216173A073216941F02001216119
:1032F0002073E4E720684069C0430006DBD4002067
:1033000070BD000008B580216B2000F03FFF4FF436
:103310009670FDF769FF00216B2000F037FF182140
:103320001B2000F033FF00211C2000F02FFF0021A4
:10333000382000F02BFF0021232000F027FF002180
:103340006A2000F023FF6946752000F07BFB9DF8A2
:10335000001004A000F02CFF01216B2000F016FFEC
:1033600008BD000049443D30782578004FF47A715B
:10337000B1FBF0F0401E10B5C1B2192000F006FFFD
:1033800003211A2000F002FF0021BDE810406C204C
:1033900000F0FCBE3EB500211148009101910F4A9A
:1033A0000291026081600173017501244FF4602273
:1033B0000461C2614160FDF78DFD08B1FDF7E1FBDD
:1033C00007200094CDE9014069460548FDF700FD5E
:1033D000002801D0FDF7D5FB3EBD000000240140D0
:1033E000800000202DE9F04385B000242C48009493
:1033F000019402940394816941F010018161816913
:1034000001F010010491816941F02001816181691D
:1034100001F020010491816941F004018161816919
:1034200001F004010491816941F008018161806922
:10343000DFF8708000F0080004900122102140465F
:10344000FDF7D4FFDFF86090012203214846FDF725
:10345000CDFF4FF47047002239464846FDF7C6FFBE
:10346000102001250326CDE90005CDE90246694675
:103470004046FDF7CBFECDE90065CDE90246694641
:103480004846FDF7C3FE0220CDE90240CDE90075B4
:1034900069464846FDF7BAFE05B0BDE8F083000076
:1034A0000010024000080140000C01400D4810B51A
:1034B0000B4901600C49416000214FF4804281605A
:1034C000C0E9031241618161C1610162FDF79AFFA8
:1034D000002803D0BDE81040FDF753BB10BD00002D
:1034E00000580040B0000020801A0600104810B5B7
:1034F0000E4901604FF48271416000218160C1601A
:103500004FF400720161C0E905120822C0E90721E9
:10351000416281620A21C162FEF740FE002803D0A9
:10352000BDE81040FDF72DBB10BD0000003001408C
:103530000401002010B58CB024216846FCF709FE78
:103540000024154809944FF080410A94C0E9001402
:103550004FF6FF71C0E90241046184610120CDE9A9
:103560000004CDE902040494CDE9054007946946BE
:1035700009480894FFF760F808B1FDF702FB0994C9
:1035800009A905480A94FEF747FF002801D0FDF776
:10359000F8FA0CB010BD00005C01002010B58CB032
:1035A00024216846FCF7D5FD0024154809941349E9
:1035B0000A94C0E900144FF6FF71C0E902410461AA
:1035C00084610120CDE90004CDE902040494CDE931
:1035D0000540079469460A480894FFF72DF808B19A
:1035E000FDF7CFFA099409A905480A94FEF714FFDC
:1035F000002801D0FDF7C5FA0CB010BD0004004052
:10360000A401002010B58EB00024079408940994FA
:103610000A940B941C2168460C94FCF79AFD2248EE
:103620002049C0E9001441F61F41C0E9024104618C
:103630008461FEF725FF08B1FDF7A3FA4FF480502F
:10364000079007A91848FEF789FF08B1FDF799FA16
:103650001548FFF7D4F908B1FDF793FA0B940BA9BD
:1036600011480C94FEF7D8FE08B1FDF78AFA6020E5
:10367000CDE900040294082269460B480494FFF740
:1036800058F908B1FDF77DFA0C2269460648FFF7A4
:1036900050F908B1FDF775FA0348FFF723F90EB0AA
:1036A00010BD000000080040EC0100200C4810B5DF
:1036B0000A4901604FF4E1314160002181600C2230
:1036C000C160C0E904128161C161FFF70BFB0028F2
:1036D00003D0BDE81040FDF754BA10BD00380140DA
:1036E000340200200C4810B50A4901604FF416510D
:1036F0004160002181600C22C160C0E90412816137
:10370000C161FFF7EFFA002803D0BDE81040FDF7D4
:1037100038BA10BD004400407C020020FEE7FEE7FE
:1037200030B40021084B0A465FF0000003EBC004F0
:10373000401CC0B262548028F8D3491CC9B2082981
:10374000F2D330BC00F09EB80C03002030B5CC089A
:1037500001F0070301259D40EBB2064D05EBC005C6
:10376000C808285C0AB1184302E063EA0000C043BD
:10377000285530BD0C03002010B5414C002201211A
:103780002046FDF733FEC820FDF72EFD012211462D
:103790002046FDF72BFE0021AE2000F029F9002184
:1037A000084600F025F90021102000F021F9002141
:1037B000402000F01DF90021812000F019F90021BE
:1037C000CF2000F015F90021A12000F011F900210F
:1037D000C82000F00DF90021A62000F009F9002111
:1037E000A82000F005F900213F2000F001F9002198
:1037F000D32000F0FDF80021084600F0F9F8002180
:10380000D52000F0F5F80021802000F0F1F800212B
:10381000D92000F0EDF80021F12000F0E9F80021B6
:10382000DA2000F0E5F80021122000F0E1F8002194
:10383000DB2000F0DDF80021402000F0D9F8002165
:10384000202000F0D5F80021022000F0D1F800215E
:103850008D2000F0CDF80021142000F0C9F80021DF
:10386000A42000F0C5F80021A62000F0C1F8FFF761
:1038700057FF0021BDE81040AF2000F0B9B80000AC
:10388000000C014070B5114E002400BF04F1B000DF
:10389000C0B2002100F0ACF80021084600F0A8F802
:1038A0000021102000F0A4F85FF0000506EBC50031
:1038B0000121005D00F09CF86D1CEDB2802DF5D368
:1038C000641CE4B2082CE1D370BD00000C0300209E
:1038D0002DE9FC4F1C460E4682468B460190082B74
:1038E0000DD0600700D0012000EBD40061084843F0
:1038F000C0B28146203AD0B2009000204BE00620B2
:10390000F7E7082C13D00C2C18D0102C1BD0182C37
:1039100044D10098234900EBC00000BF01EB8001B7
:10392000002711F80850E80712D00B9A13E000980E
:103930001D4900EB400001EB4001F1E700981B49F5
:1039400000EB4000EAE71A49009801EB0011E7E7B5
:103950000B9828B3002231465046FFF7F7FE761C3D
:103960007F1C6D08FFB2F6B2082FDCD30AF101000C
:1039700000F0FF0A082C0AD00199AAEB0100B0EB75
:10398000540F04D10BF108008A4600F0FF0B08F138
:1039900001005E46C0B280464845B2D3BDE8FC8F08
:1039A0000122D8E7BC5C00083050000858520008DB
:1039B000CC5600082DE9F8411E46154688460446B7
:1039C000079F0BE03346414620460097FFF780FFF4
:1039D000082E0AD004EB5600C4B26D1C2A78A2F15E
:1039E00020005E28EED9BDE8F881A41DE4B2F4E71A
:1039F00073B5104C09B1012200E0002202212046DB
:103A0000FDF7F4FC0C4D002210212846FDF7EEFCDA
:103A10004FF47A73012269460848FEF747FC0122F9
:103A200010212846FDF7E2FC012202212046FDF785
:103A3000DDFC7CBD000C01400008014004010020B9
:103A4000704700000EB501234FF4FA62CDE9001370
:103A500002920246D0210248FDF798FD0EBD0000FB
:103A6000B00000200EB54FF4FA638DE80E00024658
:103A70000123D0210148FDF789FD0EBDB0000020D3
:103A8000F8B515460E460B46009204460122022167
:103A900000F010F840B933460022802120460095FE
:103AA00000F008F8002804D0606D40F02000606548
:103AB0000320F8BD2DE9F8431E469146884604468A
:103AC000089DFDF799FC401B351AFDF795FC07464C
:103AD00025480068C0F3CB30684338E0701C37D00D
:103AE000FDF78AFCC01BA84203D215B1009860B351
:103AF0002CE02068416821F0E00141606068B0F589
:103B0000827F0BD1A068B0F5004F02D0B0F5806F76
:103B100004D12068016821F040010160A06AB0F57D
:103B2000005F09D12068016821F40051016020681C
:103B3000016841F400510160012084F85100002027
:103B400084F850000320BDE8F8830025401E009053
:103B50002068816838EA010004D000214945BDD1C0
:103B60000020F0E70121F9E70C0000207047000079
:103B700030B58BB0FDF798F8FCF773FD04460D46A1
:103B80002B46224630A000F013FB22462B462FA1E5
:103B900007A800F01DFB0220FDF70CF82D4CA061DA
:103BA0000320FDF707F8E0612BA101A8A26900F04E
:103BB0000FFB29A104A8E26900F00AFB6069FCF789
:103BC00050FD02460B4621A109A800F001FB01248B
:103BD0000021102321A208460094FFF7EBFE1023DA
:103BE00007AA002118460094FFF7E4FE10231DA247
:103BF000194600200094FFF7DDFE10231AA22021B1
:103C000000200094FFF7D6FE102301AA19461820C1
:103C10000094FFF7CFFE102304AA2021182000945F
:103C2000FFF7C8FE102311A2302100200094FFF7F7
:103C3000C1FE3021102309AA08460094FFF7BAFEFE
:103C4000FFF720FE0BB030BD25660000252E316643
:103C5000000000001000002025640000563A2020DB
:103C60002020560045413A0045423A00416E676CBB
:103C7000653A0000704730B593B028216846FCF7DC
:103C800068FA14210AA8FCF764FA002501200F95B0
:103C900010951195010412958DE8230004904FF4BE
:103CA000E010CDE90810022407946846FEF7E6F814
:103CB00008B172B6FEE70AA90F2081E831004FF47F
:103CC0008060CDE90D0502210AA8FDF7DBFF08B1F0
:103CD00072B6FEE74FF4004011900F940FA8FDF765
:103CE0005BFF002801D072B6FEE713B030BD70470D
:103CF0000148FEF75EBD0000C4020020F0B5026876
:103D0000194B1A4C1A4D4FF08047984205D0B842D3
:103D100003D0A04201D0A84203D122F070064A6825
:103D20003243984205D0B84203D0A04201D0A84205
:103D300003D122F44074CA6822434C6922F0800205
:103D4000224302608A68C2620A688262984201D194
:103D500009690163012141610169C90703D0016952
:103D600021F001010161F0BD002C01400004004080
:103D70000008004010B5846842EA032224F47F441E
:103D80000A432243826010BD826822F070020A4317
:103D900042F007018160704730B5036A026A22F081
:103DA000010202624268846924F073050C682C43A6
:103DB00023F002058B682B430A4DA8420BD123F058
:103DC0000805CB6822F440722B434D6923F00403AD
:103DD00015438A692A4342608461496841630362EA
:103DE00030BD0000002C014030B5026A036A23F0A8
:103DF00010030362436884690D6824F4E64444EACE
:103E000005248D6822F0200242EA05120B4DA842DB
:103E10000ED1CD6822F0800242EA05124D6923F4EA
:103E2000406343EA85038D6922F0400243EA85033B
:103E30004360846149688163026230BD002C0140A7
:103E400030B5036A026A22F4807202624268C46971
:103E500023F4007324F073050C682C438D6843EA47
:103E600005230C4DA8420ED1CD6823F4006343EA2C
:103E700005234D6922F4405242EA05128D6923F46C
:103E8000806342EA05124260C4614968C16303620B
:103E900030BD0000002C014030B5046A026A22F4F3
:103EA000805202624268C3690D6823F4E64343EA24
:103EB00005238D6824F4005444EA0534064DA842D5
:103EC00004D14D6922F4804242EA85124260C36106
:103ED00049680164046230BD002C014010B5036ADA
:103EE000046A24F001040462846924F0F00444EAC2
:103EF000021423F00A020A438461026210BD10B565
:103F0000036A046A24F010040462846923F0A003A5
:103F100024F4704444EA023243EA011182610162EE
:103F200010BD10B5406A0021C185C184FEF7A2FD15
:103F300010BD01680C3151E8002F22F4907241E865
:103F40000023002BF5D10168143151E8002F22F035
:103F5000010241E80023002BF5D1016B012909D1B1
:103F600001680C3151E8002F22F0100241E80023D3
:103F7000002BF5D1202180F8421000210163704709
:103F800008B590F84210222901D0022008BD8268AD
:103F90004FF480539A4201D1016921B1816A9A425A
:103FA0001BD04AB10AE00268816A5268C2F3080273
:103FB0000A80816A891C08E0026972B1026852684D
:103FC00002F07F020A70816A491C8162C18D491E1C
:103FD0000904090CC18503D01BE002685268F1E7AF
:103FE0000168CA6822F02002CA600168CA6822F427
:103FF0008072CA6001684A6922F001024A61202188
:1040000080F8421000214163026B012A03D0FEF7C1
:1040100007FF002008BD016301680C3151E8002F43
:1040200022F0100241E80023002BF5D101680A6854
:10403000D20602D50A6849680091818DFEF719FD04
:10404000E7E7000070B5044600680169E26821F402
:104050004051114301612169A06808436169084327
:104060002168CA6841F20C639A430243CA6020681F
:104070004169A26921F44071114341611E492068E0
:10408000884202D1FDF7C4FE01E0FDF7B1FE00EB6E
:10409000C00101EB0012606864218000B2FBF0F304
:1040A000B3FBF1F36FF018067343B2FBF0F5B2FB0C
:1040B000F0F605EB8305322303EB0515B5FBF1F5AF
:1040C000B6FBF1F605F0F00505EB0615B2FBF0F6D0
:1040D000B2FBF0F0B0FBF1F06FF01802504306EBCA
:1040E000800003EB0010B0FBF1F0216800F00F003E
:1040F0002844886070BD0000003801402DE9F84375
:10410000984617460D460446089E24E0701C22D0AF
:10411000FDF772F9A0EB0800B0421AD8CEB12068C2
:10412000C168490717D5802D15D0402D13D00168DF
:10413000C94309070FD40168002540680090204654
:10414000FFF7F7FE0820606484F840500120BDE8C6
:10415000F8830320FBE72068006835EA000004D0FC
:104160000020B842D2D00020F1E70120F9E700009A
:104170000148FEF781BC0000340200200148FEF730
:104180007BBC00007C020020FEE7000003B583B08A
:104190004FF4FA63012204A98DE80E00134602468B
:1041A000D0210248FDF720FB05B000BDB000002083
:1041B0000FB4054B10B503A9044A029800F074F936
:1041C00010BC5DF814FB0000814F00087C0000204B
:1041D0000FB4084B10B504A902AA039800F064F9C3
:1041E000044602A9002000F0F6FC204610BC5DF851
:1041F00014FB0000D74B0008490050EAC12018BF4B
:1042000004204A0D18BF40F0010040F2FF72B2EBEB
:10421000515F08BF40F00200012808BF0520704729
:104220000907090E002804DB00F1E02080F80014E3
:10423000704700F00F0000F1E02080F8141D704777
:104240002DE9F0414F1E00EBC7010446D1E9000102
:1042500015461E4637F006020DD02A463346FCF7B7
:10426000F2F87F1E04EBC703D3E90023FCF744F800
:1042700037F00602F1D1022F25D0042F13D0062FDC
:1042800018BFBDE8F0812A463346FCF7DCF8D4E9D4
:104290000A23FCF731F82A463346FCF7D4F8D4E970
:1042A0000823FCF729F82A463346FCF7CCF8D4E972
:1042B0000623FCF721F82A463346FCF7C4F8D4E974
:1042C0000423FCF719F82A463346FCF7BCF8D4E976
:1042D0000223FCF711F82A463346FCF7B4F8D4E978
:1042E0000023BDE8F041FCF707B80122FCF78CB9C8
:1042F000FCF702B8024A00201107FCF785B900005C
:1043000001FDFFFF02E008C8121F08C1002AFAD110
:1043100070477047002001E001C1121F002AFBD145
:10432000704700002DE9FF5F82B00021DDE9043015
:10433000020DDDF840B0034318D044F61050A2F24D
:10434000FF3242431514119801281FD0A5EB0B0032
:10435000401C5FEA000A4FF000064E4FDFF838912C
:10436000B046504615D5CAF1000413E01198012457
:104370004AA3012801D16FEA0B010298119AC0E902
:104380000031C0E9024206B0BDE8F09FCBF1000069
:10439000DFE704460021404A491842EB0450CDE9CA
:1043A000001012E0E00707D032463B46404649463F
:1043B000FCF749F88046894632463B461046194686
:1043C000FCF741F806460F466410002CEAD1DDE9FF
:1043D0000401DDE90023BAF1000F06DAFCF733F837
:1043E00042464B46FCF72FF805E0FCF79EF84246A4
:1043F0004B46FCF79AF804460E460022284BFCF781
:1044000073FA03D84FF0FF30014607E00022254B36
:1044100020463146FBF770FFFCF74EFA102409E006
:10442000002C0ADB0A220023FCF760F9039B3032E0
:104430001A55641E50EA0102F2D1641C039AC4F1B9
:1044400011031444119A012A03D0012208430DD10B
:104450000AE0084304D000204FF0110B119072E7DE
:10446000A3EB0B056D1E0DE05B4504DD4FF0000274
:1044700005F1010504E003DA4FF00002A5F10105A2
:10448000002AECD002981199C0E90231C0E9004538
:1044900079E70000000014400000F03F3000000009
:1044A0000000F0430000E03F2DE9FF4F95B09B4630
:1044B0008946064600250FE2252877D100242746A5
:1044C000F84A0121059400E0044316F8013F203B1F
:1044D00001FA03F01042F7D130782A2811D06FF09A
:1044E0002F033078A0F13002092A16D8059A44F03B
:1044F000020402EB820203EB42021044761C059098
:10450000EFE759F8042B0592002A03DA504244F4ED
:104510000054059044F00204761C30782E2816D101
:1045200016F8010F44F004042A280DD06FF02F0272
:104530003078A0F13003092B09D807EB870302EB91
:104540004303C718761CF3E759F8047B761C3078D0
:104550006C280FD006DC4C2817D068280DD06A28AC
:1045600014D104E0742810D07A280FD10DE044F45F
:1045700000140AE044F4801401E044F4401472781A
:10458000824202D104F58014761C761C30786628AD
:104590000BD013DC582877D009DC002875D04528CB
:1045A000F6D04628F4D047281AD19DE118E06328B8
:1045B00035D0642879D0652812D195E1702873D060
:1045C00008DC6728F1D069286FD06E280DD06F28DD
:1045D00006D1B5E073282CD0752875D0782874D012
:1045E0005A46179990476D1C75E1C4F30250022892
:1045F00009D003280DD0D9F8001004280DD00D6083
:1046000009F1040967E1D9F80010EA17C1E900527D
:10461000F6E7D9F800100D80F2E70D70F0E719F811
:10462000041B8DF8001000208DF80100EA460120DF
:1046300003E059F804AB4FF0FF3061074FF0000181
:1046400002D40DE008F101018846B9420FDA804535
:10465000F8DB1AF808100029F4D108E008F101018C
:1046600088468142FADB1AF808100029F6D105982D
:104670005B46A0EB080721463846179A00F094FAEB
:10468000284400EB080507E04DE029E10DE01AF8A9
:10469000010B5A4617999047B8F10108F7D25B46CB
:1046A00021463846179A13E142E00A220092C4F3E9
:1046B00002524FF0000A022A08D059F804CB032A0C
:1046C0004FEAEC710AD00DE029E02AE009F1070178
:1046D00021F00702F2E802C1914609E00FFA8CFCD2
:1046E0004FEAEC71042A03D14FFA8CFC4FEAEC71CB
:1046F000002907DA0A460021DCF1000C61EB020117
:104700002D2202E0220504D52B228DF8042001225F
:1047100003E0E20701D02022F7E7904659E00A21A2
:1047200002E010220DE010214FF0000A00910BE092
:1047300010224FF0000A44F004040827009203E01E
:1047400008224FF0000A0092C4F30252022A05D058
:1047500059F804CB0021032A08D009E009F1070128
:1047600021F00702F2E802C1914605E01FFA8CFC35
:10477000042A01D10CF0FF0C4FF00008220728D5C5
:10478000702806D0009B83F0100353EA0A0305D07B
:104790000EE040228DF80420012208E05CEA0102CC
:1047A00006D030228DF804208DF8050002229046B4
:1047B000009B83F0080353EA0A030AD15CEA010272
:1047C00001D1620705D530228DF804204FF0010891
:1047D0007F1E582804D034A003900EA802900DE04C
:1047E00036A0F9E753466046009AFBF77FFF844600
:1047F0000398825C0298401E029002705CEA0100FD
:10480000F0D1029806A9081A00F1200A600702D523
:1048100024F4803400E00127574502DDA7EB0A00AD
:1048200000E0002000EB0A01009005984144401A86
:104830000590E00306D45B462146179A059800F0E0
:10484000B3F90544002706E001A85A46C05D179950
:1048500090476D1C7F1C4745F6DBE0030CD55B469B
:104860002146179A059800F09FF9054404E030208E
:104870005A46179990476D1C0099481E00900029D0
:10488000F5DC08E0029802995A460078491C02912A
:10489000179990476D1CBAF10001AAF1010AF1DCE9
:1048A00065E10000092801003031323334353637F4
:1048B000383961626364656600000000303132336C
:1048C000343536373839414243444546000000000C
:1048D00000F058F90544761C307800287FF4ECADE0
:1048E00019B02846BDE8F08F620700D4062709F109
:1048F000070222F0070CFCE80223E14603F000481F
:104900005FEA080C02D00FF2702C0DE05FEA045C45
:1049100002D50FF2682C07E05FEAC47C02D00FF2E8
:10492000602C01E0AFF2700C4FF0FF3823F0004331
:10493000CDF850C065280CD006DC452809D04628A3
:104940001DD047283DD13DE0662818D067287ED18C
:1049500038E00021112F01DB112000E0781CCDE9A7
:10496000000106A90EA8FFF7DDFCDDE90F010E9A94
:1049700003910021009207F1010A04914DE04FF0EC
:1049800000400097CDE9011006A90EA8FFF7CAFC68
:10499000DDE90F0203920E9B11990022DDF80CA0B5
:1049A0000093049211B9791C00EB010AB7EB0A00DD
:1049B00004D4C0F1FF3007F1010A0490AAEB07000C
:1049C000019044E0012F00DA01270021112F01DDC1
:1049D000112000E03846CDE9000106A90EA8FFF736
:1049E000A1FCDDE90F010E9A0391002104910092D0
:1049F000BA4621070CD40399514500DA8A46BAF128
:104A0000010F05DD009AAAF10101515C302908D09F
:104A1000B84202DA10F1040F06DA0121CDE90110E3
:104A200015E0AAF10101E9E7002805DC0499014439
:104A30000491AAEB000102E0411C514500DD8A46C9
:104A40000499401A401C01904FF00040029020074A
:104A500004D40198504501DBCDF8048000208DF886
:104A60004F0002980DF14F07B0F1004F25D02B20D9
:104A70000E9002984FF0020800280CDA4042029093
:104A80002D200E9007E00A210298FBF719FE303125
:104A9000029007F8011DB8F10001A8F10108F2DC4D
:104AA00002980028EFD1791E0E980870307800F037
:104AB000200040F0450007F8020D12A8C01B00F1CD
:104AC00007081498007800B1012000EB0A01019852
:104AD00001EBE07105984144401A401E0590E00347
:104AE00006D45B462146179A059800F05DF8054408
:104AF0001498007818B15A46179990476D1CE00336
:104B000024D55B462146179A059800F04DF80544D8
:104B10001CE00498002807DBDDE90301884203DD7F
:104B20000098405C179901E0179930205A46904749
:104B3000049805F10105401C04900198401E019065
:104B400004D12E205A46179990476D1CBAF10001E6
:104B5000AAF1010ADDDC05E017F8010B5A461799A6
:104B600090476D1CB8F10001A8F10108F4DC5B4628
:104B70002146179A0598ABE62D0000002B00000097
:104B8000200000002DE9F041044600251E4617468E
:104B9000880404D405E039462020B0476D1C641E0B
:104BA000F9D52846BDE8F0812DE9F04104460025FD
:104BB0001E469046C80301D5302700E02027880410
:104BC00004D505E041463846B0476D1C641EF9D552
:104BD0002846BDE8F0810A68531C0B6010707047CE
:104BE0002DE9F84F04460D4621F00040009173492D
:104BF000814211DC7249884201DC06D12CB1204689
:104C00002946BDE8F84FFFF770BB6E48002DCCBFBA
:104C10006D496E49BDE8F88F6D49814211DD6D49DE
:104C20008142D8BF4FF0FF366DDD20462946FFF7A1
:104C3000E3FA042808BFFFF75DFB20462946BDE8DC
:104C4000F88F6549654F25F00045814233DD6449A1
:104C5000814219DD002632464FF080432046294626
:104C6000FBF74AFB80468A46012220462946FBF78D
:104C7000CBFC00223B46FBF7E0FB42465346FBF7EA
:104C800054FC04460D463EE001260022BA463B464F
:104C900020462946FBF730FB80460F46002253464C
:104CA00020462946FBF7C9FB42463B46FBF73DFC45
:104CB00004460D4627E04B4981421BDDDFF828A161
:104CC00002260022534620462946FBF7BCFB002261
:104CD0003B46FBF711FB80460F4600225346204619
:104CE0002946FBF7AAFB42463B46FBF71EFC04465F
:104CF0000D4608E0032622462B4600203B49FBF7E1
:104D000014FC04460D4622462B4610461946FBF776
:104D10009AFB8B46824602460B46FBF794FB0746FE
:104D20000246334888460B4606217844FFF788FA46
:104D300052465B46FBF787FB82462E488B463A4637
:104D4000434605217844FFF77BFA3A464346FBF792
:104D50007AFB02460B46002E504659460CDAFBF70A
:104D6000CBFA22462B46FBF76EFB01B022462B46C0
:104D7000BDE8F04FFBF764BBFBF7BEFA22462B46BB
:104D8000FBF761FB1C4A7A4402EBC603D3E900231C
:104D9000FBF753FB22462B46FBF74FFB174A7A449F
:104DA00002EBC603D3E90023FBF74AFB009A002A73
:104DB000B8BF81F00041BDE8F88F0000000010444A
:104DC0000000F07F182D4454FB21F93FFB21F9BF6F
:104DD0000000DC3F0000203E0000F33F0000F03FF9
:104DE0000000E63F008003400000F83F0000F0BFF5
:104DF0007A21000038210000D62000009E2000000B
:104E00002DE9F04D9446CCF1000423F000464CEA25
:104E10000404524F46EAD4749A46884621F0004270
:104E2000BC4206D8454240EA050442EAD474BC427A
:104E300004D9BDE8F04D6246FFF75ABAAAF14055D1
:104E4000A5F17F6555EA0C040BD0022404EAAA748C
:104E5000434DDFF810E144EAD87452EA000B04D065
:104E60000CE0BDE8F04DFFF7BBBE002C14BF012CD9
:104E7000BDE8F08D022C30D0032C32D056EA0C0B5A
:104E80000AD0BE4220D1BA4209D126F0804622F093
:104E900080423346114617E000291ADB25E0DFF88F
:104EA000C8B0FB44002C04BFDBE90001BDE8F08D75
:104EB000012C02BFDBE9000181F00041BDE8F08D6B
:104EC000022C0AD0032C0CD0BA4212D1B8F1000F38
:104ED0000BDA23482549BDE8F08D28462449BDE872
:104EE000F08D28467146BDE8F08D1D482149BDE88A
:104EF000F08D921B12153C2AC4BF19481D490EDCC7
:104F0000BAF1000FBEBF12F13C0F0020014606DBD4
:104F10006246FBF70AFB21F00041FFF761FE002C1F
:104F200008BFBDE8F08D012C04BF81F00041BDE851
:104F3000F08D114A114B022C07D0FBF77EFA2A465E
:104F4000BDE8F04D0A4BFBF778BAFBF776FA2A4634
:104F5000BDE8F04D064BFBF773BA00000000F07F90
:104F6000182D4454FB2109C032200000FB21F9BF59
:104F7000FB210940FB21F93F075C143326A6A13C25
:104F800013B54FF4FA73012269460248FDF749FF51
:104F900000981CBD34020020FCF7F6FCFEF76BFE07
:104FA000FEF720FAFEF72EFBFEF7F4F9FEF77EFA85
:104FB000FEF79CFAFEF7BEFAFEF7F0FAFEF776FB74
:104FC000FEF790FBFEF79EF96420FEF7CFF9084844
:104FD000FBF792FE0648FCF737F8FEF7CDFBFEF72D
:104FE0009FFB00BFFBF712FEFEF7C2FDFAE70000D1
:104FF00080000020010202030405060708090A0BCD
:105000000C0D0E0F1010010202030405060708091B
:105010000A0B0C0D0E0F1010000000000000000025
:10502000010203040607080900000000010203044E
:105030000000000000000000002F0000000007003A
:10504000070000147F147F1400242A7F2A120062B4
:105050006408132300364955225000000503000060
:1050600000001C224100000041221C000014083EE8
:1050700008140008083E0808000000A060000008AE
:105080000808080800006060000000201008040202
:10509000003E5149453E0000427F400000426151C0
:1050A0004946002141454B31001814127F1000275A
:1050B00045454539003C4A4949300001710905031D
:1050C00000364949493600064949291E000036364E
:1050D00000000000563600000008142241000014B1
:1050E000141414140000412214080002015109068E
:1050F00000324959513E007C1211127C007F49490F
:105100004936003E41414122007F4141221C007F3F
:1051100049494941007F09090901003E4149497A4D
:10512000007F0808087F0000417F410000204041C7
:105130003F01007F08142241007F40404040007F33
:10514000020C027F007F0408107F003E4141413E77
:10515000007F09090906003E4151215E007F0919BF
:1051600029460046494949310001017F0101003FBC
:105170004040403F001F2040201F003F4038403F3C
:1051800000631408146300070870080700615149A0
:10519000454300007F41410000552A552A55000033
:1051A00041417F00000402010204004040404040B1
:1051B000000001020400002054545478007F484449
:1051C000443800384444442000384444487F003880
:1051D0005454541800087E0901020018A4A4A47CA9
:1051E000007F080404780000447D40000040808473
:1051F0007D00007F102844000000417F4000007CBB
:1052000004180478007C08040478003844444438C6
:1052100000FC242424180018242418FC007C080412
:10522000040800485454542000043F444020003CEB
:105230004040207C001C2040201C003C4030403C72
:10524000004428102844001CA0A0A07C0044645402
:105250004C44141414141414000000000000000046
:10526000000000000000FC00000000000200000040
:10527000000C020C020000000000000090D0BCD026
:10528000BC900003000300001824FE448C000302BD
:10529000070201001824D8B04C800003000102016D
:1052A000C038E438E00001020201020208060000F2
:1052B0000000000000000000000000F804020000F0
:1052C00000010204000204F80000000402010000D2
:1052D0009060F86090000000010000002020FC2099
:1052E000200000000100000000000000000008068F
:1052F000000000002020202020000000000000000E
:105300000000000000000002000000000080601C9F
:105310000200040300000000F8040404F800010285
:10532000020201000008FC0000000002030200006D
:1053300018844424180003020202020008042424F2
:10534000D80001020202010040B088FC8000000089
:10535000000302003C242424C400010202020100D4
:10536000F824242CC0000102020201000C04E41CF9
:105370000400000003000000D8242424D800010207
:105380000202010038444444F80000030202010014
:1053900000001000000000000200000000002000DB
:1053A00000000000060000000020508804020000F9
:1053B000000001029090909090000000000000001A
:1053C0000002048850200002010000001804C424D8
:1053D0001800000002000000F804E494F800010244
:1053E0000202020000E09CF08000020300000302C1
:1053F00004FC2424D800020302020100F80404047F
:105400000C0001020202010004FC0404F800020383
:105410000202010004FC24740C00020302020300D7
:1054200004FC24740C00020302000000F008044491
:10543000CC4000010202010004FC2020FC04020315
:10544000000003020404FC04040002020302020040
:10545000000404FC040406040403000004FC24D03B
:105460000C0402030200030204FC04000000020317
:1054700002020203FC3CC03CFC00030003000300EA
:1054800004FC30C4FC04020302000300F80404041A
:10549000F80001020202010004FC242418000203A7
:1054A00002000000F8848404F800010202070500ED
:1054B00004FC24649800020302000302182424441C
:1054C0008C000302020201000C04FC040C00000228
:1054D0000302000004FC0000FC04000102020100C1
:1054E000047C80E01C040000030000001CE03CE0A1
:1054F0001C00000300030000049C609C04000203E5
:1055000000030200041CE01C04000002030200006F
:105510000C84641C04000203020203000000FE026B
:105520000200000007040400000E30C0000000006C
:1055300000010200000202FE000000040407000057
:105540000004020400000000000000000000000051
:105550000000080808080808000002000000000019
:10556000000000000040A0A0C000000102020302F1
:1055700004FC2020C00000030202010000C0202023
:10558000600000010202020000C02024FC000001B3
:105590000202030200C0A0A0C0000001020202003B
:1055A0000020F82424040002030202000040A0A00E
:1055B000602000070A0A0A0404FC2020C00002033D
:1055C000020003020020E4000000000203020000C9
:1055D000000020E4000008080807000004FC80E048
:1055E00020200203020003020404FC000000020267
:1055F00003020200E020E020C000030003000300DB
:1056000020E02020C00002030200030200C020208E
:10561000C00000010202010020E02020C000080FAD
:105620000A02010000C02020E0000001020A0F0869
:1056300020E0402020000203020000000060A0A043
:1056400020000002020203000020F82000000000F9
:105650000102020020E00020E0000001020203023B
:1056600020E0208060200000030100006080E080D6
:10567000600000030003000020608060200002033F
:105680000003020020E020806020080807010000DD
:105690000020A0602000000203020200000020DEC3
:1056A0000200000000070400000000FF00000000EE
:1056B000000F00000002DE200000000407000000D0
:1056C00002010204040200000000000000000000CB
:1056D000000000000000000000000000000000F8D2
:1056E00000000000000000333000000000100C0635
:1056F000100C0600000000000000000040C07840D0
:10570000C0784000043F04043F040400007088FC9B
:1057100008300000001820FF211E0000F008F000F3
:10572000E018000000211C031E211E0000F0088864
:10573000700000001E2123241927211010160E00CE
:10574000000000000000000000000000000000E079
:10575000180402000000000718204000000204188E
:10576000E00000000040201807000000404080F0EA
:10577000804040000202010F01020200000000F020
:10578000000000000101011F0101010000000000F4
:105790000000000080B07000000000000000000069
:1057A00000000000000101010101010100000000F2
:1057B0000000000000303000000000000000000089
:1057C00080601804006018060100000000E0100866
:1057D0000810E000000F102020100F00001010F83B
:1057E000000000000020203F20200000007008087A
:1057F00008887000003028242221300000300888FA
:10580000884830000018202020110E000000C02021
:1058100010F8000000070424243F240000F8088842
:10582000880808000019212020110E0000E01088CF
:1058300088180000000F112020110E000038080801
:10584000C83808000000003F000000000070880811
:1058500008887000001C222121221C0000E0100892
:105860000810E0000000312222110F00000000C0EB
:10587000C000000000000030300000000000008088
:105880000000000000008060000000000000804078
:105890002010080000010204081020004040404091
:1058A00040404000040404040404040000081020E4
:1058B0004080000000201008040201000070480829
:1058C0000808F0000000003036010000C030C82891
:1058D000E810E0000718272423140B000000C0384C
:1058E000E0000000203C23020227382008F88888C6
:1058F00088700000203F202020110E00C0300808D2
:1059000008083800071820202010080008F80808A8
:105910000810E000203F202020100F0008F88888A1
:10592000E8081000203F20202320180008F888886D
:10593000E8081000203F200003000000C0300808E5
:105940000838000007182020221E020008F808006E
:105950000008F808203F210101213F20000808F835
:10596000080800000020203F202000000000080858
:10597000F8080800C08080807F00000008F888C018
:1059800028180800203F20012638200008F80800C9
:1059900000000000203F20202020300008F8F80000
:1059A000F8F80800203F003F003F200008F830C012
:1059B0000008F808203F200007183F00E010080802
:1059C0000810E0000F10202020100F0008F8080831
:1059D0000808F000203F210101010000E010080844
:1059E0000810E0000F18242438504F0008F8888869
:1059F00088887000203F2000030C30200070880849
:105A0000080838000038202121221C00180808F856
:105A1000080818000000203F2000000008F80800D7
:105A20000008F808001F202020201F0008788800A8
:105A300000C83808000007380E010000F80800F818
:105A40000008F800033C0700073C030008186880C2
:105A50008068180820302C03032C30200838C80038
:105A6000C83808000000203F200000001008080887
:105A7000C83808002038262120201800000000FE29
:105A8000020202000000007F40404000000C30C0D5
:105A900000000000000000010638C0000002020201
:105AA000FE000000004040407F00000000000402B3
:105AB00002020400000000000000000000000000DE
:105AC00000000000808080808080808000020204CE
:105AD00000000000000000000000000000008080C6
